:020000040000fa
:10000000f07f0020197f0000575d0000736500003d
:1000100000000000000000000000000000000000e0
:100020000000000000000000000000009f5a0000d7
:1000300000000000000000009f5a00009f5a0000ce
:100040009f5a00009f5a00009f5a00009f5a0000cc
:100050009f5a00009f5a00009f5a000051950000cf
:100060009f5a000081210000252d0000e526000098
:10007000951f000000000000000000009f5a0000d3
:100080009f5a00009f5a00009f5a00009f5a00008c
:100090009f5a000000000000000000009f5a00006e
:1000a0009f5a00009f5a00009f5a00009f5a00006c
:020000040000fa
:1000b000f8b5c046f8bc08bc9e467047f97e000003
:1000c000f8b5c046f8bc08bc9e467047d17e00001b
:020000040000fa
:0800d000702400000100000093
:020000040000fa
:1000d800f0b5d6464f464646c0b590b004000d0070
:1000e800002800d106e3002900d105e340220021c1
:1000f800684609f099fa2988200008f037ff002897
:1001080000d1e4e23a21200009f0b8f9071e07d02f
:10011800061bc74b9e4200dd1e000136002e07d18c
:100128006b4603221021012008f09cfd0324dae22b
:10013800c04b984632002100180009f03ffb00230d
:10014800424693553004000c414608f05fff434691
:100158001b78613bdab2132a53d89300b64ad358b6
:100168009f46b64b00221a702821b24809f086f93a
:10017800061e11d02921af4809f080f9002844d083
:100188000136831b9bb2082bcad1102200213000f4
:1001980009f0bff904f020fd7e1c3a21300009f077
:1001a8006df98246002833d053469f1b0137002f34
:1001b800b6d0a04b98463a003100180009f0fefa74
:1001c80000234246d3552821404609f057f9071e17
:1001d80027d09849781a08f019ff984b1b78002bfc
:1001e80000d099e0934b1b78613bdab2152a00d90d
:1001f8008ee09300924ad3589f46904b30221a7053
:10020800b2e78e4bff221a708ae730000830b7e752
:100218000a21300009f032f98246002800d17fe730
:10022800c2e73a21834809f029f9071e00d177e788
:10023800cfe7824b01221a7001372921380009f0d3
:100248001df98146002800d16ae77e4e7e4a0021ca
:10025800300009f0e9f94b46da1b7c4b1a8012048e
:10026800120c3900300009f0a9fa744b1b78f02bf6
:1002780057d0764e3088734907f0fffb30806f4bbc
:100288001b78312b00d17ee100d98be2042b00d101
:100298002ce100d842e2062b00d14ee100d237e132
:1002a800072b00d15be10020082b00d059e2684bf6
:1002b80019680b7f4a7f12021a438b7f1b041a436b
:1002c800cb7f1b06134300d142e25e4a1078421ee0
:1002d8009041c0b2984739e2584b02221a70abe7f6
:1002e800544b5b78692b03d0544b03221a70a3e755
:1002f800524b05221a709fe7504b04221a709be755
:100308004e4b06221a7097e74c4b07221a7093e758
:100318004a4bff221a7003e7302b44d0f02b00d051
:1003280081e0574601370a21380009f0a7f800286c
:1003380000d1f5e6c61b00d1f2e63e4b98463200e6
:100348003900180009f03afa00234246935528214b
:10035800404609f093f8061e00d1cfe1354fc01b87
:10036800390008f053fe3b78692b75d0732b00d009
:100378007ee0324bf1221a7001362921300009f053
:100388007df8002800d1cbe6801bc0b2022800d03f
:10039800c6e610220021300009f0bbf8ff23184000
:1003a80004f01afc65e7234b1b78693bdab20e2a86
:1003b80035d89300274ad3589f46204bf0221a700d
:1003c800afe71e4b31221a7036e71a4b5b78652b64
:1003d80003d01a4b32221a702ee7184b34221a70a7
:1003e8002ae7144b5b78722b05d0772b07d1134b78
:1003f80037221a7020e7114b38221a701ce70f4b6e
:10040800ff221a708ce60d4b33221a7014e70b4b3f
:1004180035221a7010e7094b36221a700ce7074b81
:10042800ff221a707ce6ff2b00d179e604e7c0466c
:10043800c3090000c4090020884f00009735002038
:10044800d84f000000000020c40900008a350020b1
:10045800bc2f0020305000003a21c94809f00ef89e
:10046800002805d04378732b06d0c64b02221a7099
:10047800c54bff221a70fce68378702b08d0772bc7
:10048800f6d10379002b07d0be4b04221a70efe790
:10049800bc4b01221a70ebe7ba4b03221a70e7e74c
:1004a800ba4b19680b794a7912021a438b791b04e3
:1004b8001a43cb791b06134300d149e1b449b54827
:1004c800984743e1b14b19680b7a4a7a12021a43ea
:1004d8008b7a1b041a43cb7a1b06134300d137e1ee
:1004e800ad4a1068aa4aab4998472fe1a74b19684b
:1004f8000b7b4a7b12021a438b7b1b041a43cb7b70
:100508001b06134300d123e1a149a24898471de1e6
:100518009e4b19680b7c4a7c12021a438b7c1b0485
:100528001a43cb7c1b06134300d111e1994a10787a
:10053800421e9041c0b2984708e1944b19680b7d60
:100548004a7d12021a438b7d1b041a43cb7d1b067e
:10055800134300d1fce08e498e489847f6e08b4b58
:1005680019680b7e4a7e12021a438b7e1b041a43bb
:10057800cb7e1b06134300d1eae0874a1068844a01
:1005880084499847e2e0814b19682023cb5c2122fb
:100598008a5c12021a432223cb5c1b041a432323ce
:1005a800cb5c1b06134300d1d2e07b4a1068984706
:1005b800cce0764b19682823cb5c29228a5c12028e
:1005c8001a432a23cb5c1b041a432b23cb5c1b0640
:1005d800134300d1bce0704a10686d4a6d499847d2
:1005e800b4e06a4b19682c23cb5c2d228a5c12027a
:1005f8001a432e23cb5c1b041a432f23cb5c1b0608
:10060800134300d1a4e0644a1068614a61499847dd
:100618009ce05e4b19683023cb5c31228a5c120265
:100628001a433223cb5c1b041a433323cb5c1b06cf
:10063800134300d18ce0584a1068554a55499847e9
:1006480084e0524b19683423cb5c35228a5c120251
:100658001a433623cb5c1b041a433723cb5c1b0697
:10066800134300d174e04c4a1068494a49499847f5
:100678006ce0464b19683823cb5c39228a5c12023d
:100688001a433a23cb5c1b041a433b23cb5c1b065f
:1006980013435dd0404a10683d4a3e49984755e0ab
:1006a8003a4b19683c23cb5c3d228a5c12021a4300
:1006b8003e23cb5c1b041a433f23cb5c1b0613432e
:1006c80046d0354a1068324a324998473ee03348a6
:1006d8002100583008f08afc6b46032210210120c3
:1006e80008f0c0fa0324200010b01cbc90469946bc
:1006f800a246f0bde224f6e7e224f4e73a212048d6
:1007080008f0bcfe002800d10ae51d4b1b78692bb8
:1007180000d17ae0732b00d12be6a9e6022b00d199
:10072800bee600d9cee60020012b1ad1174b196876
:100738000b784a7812021a438b781b041a43cb7839
:100748001b06134304d0124912489847042808d1bd
:100758000f4b00221a80124a00210e4808f064ff4d
:100768000420094b1b78013b022b2ed82a002100bc
:1007780005f01cf80400002cb5d108f0e3fcb2e742
:10078800c40900209635002097350020bc2f002092
:100798008a3500200000002060350020f860000045
:1007a800c4090000352b00d11be714d9372b00d121
:1007b8005fe700d245e7382b00d171e70020f12b25
:1007c800cfd1144b00221a8000202a00210004f007
:1007d800edff0400cfe7332b00d1eae600d918e794
:1007e8000d4b19682423cb5c25228a5c12021a431c
:1007f8002623cb5c1b041a432723cb5c1b0613431d
:10080800a6d0064a10689847a0e73a21044808f09d
:1008180035fe27e68a350020bc2f002060350020f1
:04082800c4090020df
:020000040000fa
:10082c00f0b5c64600b582b005004378002b00d168
:10083c009ee2836b002b00d19ae2446aa38b9b054a
:10084c0005d5238b9b0502d580239b00a383a38b0b
:10085c00db0505d5238bdb0502d580235b00a38349
:10086c00a38b1b0604d5238b1b0601d58023a383e6
:10087c00a38b5b0604d5238b5b0601d54023a38396
:10088c00a38b9b0604d5238b9b0601d52023a38326
:10089c00a38bdb070dd5238bdb070ad50123a383a1
:1008ac00a3820f33a383238300220421686bab6bd9
:1008bc009847a38bdb060dd5238bdb060ad51023bb
:1008cc00a383a3820f3ba383238300220321686ba2
:1008dc00ab6b9847a38b5b0709d5238b5b0706d5be
:1008ec000423a38300220721686bab6b9847a38b6f
:1008fc001b0702d5238b1b0735d40823ff33e35c7e
:10090c00db065dd50a23ff33e35cdb0658d56e6c42
:10091c00f37902229343f371f37b9343f3733768b8
:10092c00002f47d0e96c0632386808f0f9fd08232f
:10093c00ff331022e254033b3032e2543a6891798f
:10094c00d3791b020b432ad121330722ea54022309
:10095c003b7206337b60bb693360fb68002b2fd086
:10096c00380098472ce021230022ea54237b1b07f4
:10097c009b0fc14ad25c3023ea5428004c304022f1
:10098c00002108f04ffeab6b002b03d0002202219c
:10099c00686b98478023a372783ba383ade71378e9
:1009ac007f2b03d821230222ea54d0e721230622ed
:1009bc00ea54cce721230122ea54e7330f32e25404
:1009cc000823ff33e35c9b0737d50a23ff33e35c33
:1009dc009b0732d56b6c9e68002e2ed02122aa5c10
:1009ec00082a1ad0316a002971d1327c51b20029ff
:1009fc005ddb21220521a95400223272b2699a6072
:100a0c00f368002b01d0300098470823ff330222f3
:100a1c00e254033b3e32e2540fe0002221216a549f
:100a2c003272b16999607260f368002b01d03000aa
:100a3c0098470823ff330222e2540823ff33e35c78
:100a4c00db0700d4a3e00a23ff33e35cdb0700d40d
:100a5c009de06b6c98462123eb5c052b59d04346eb
:100a6c001e68002e74d02f6dbf04bf0c306a7368e3
:100a7c003a189a4201d91f1abfb2e96c33689c46e6
:100a8c0060443a0008f04cfd336afb18336272681c
:100a9c00934264d241468988b94260d882235b0074
:100aac004022e2540823ff333f3ae2546fe07f23a5
:100abc001a4032742b6e9b0b9b032b660823ff335f
:100acc000222e2540623ff337e32e254b5e79f89bb
:100adc00b94200d88fb2e86d7368591a33689c46d6
:100aec0061443a0008f01cfd336adb1b33622b6e49
:100afc009b0b9b032b662b6ebf04bf0c1f432f66f7
:100b0c000823ff330222e2540623ff337e32e254e1
:100b1c0093e743461868002813d000230372212260
:100b2c00ab540822ff320121a154033a3f31a154a6
:100b3c004246816911604360c368002b27d09847f7
:100b4c0025e021230422ea54e733033ae2541ee061
:100b5c0021230322ea54e733023ae25417e093428a
:100b6c009b415b42337221230722ea540823ff3353
:100b7c00063ae254033b3f32e2544346b2691a60f0
:100b8c00336a7360f368002b01d030009847238cd4
:100b9c009b0700d494e02a23ff33e35cdbb2019380
:100bac002823ff33e35cdbb20093009b1b070fd5bc
:100bbc00019b1b070cd58623eb5c9b0708d5862273
:100bcc00ab5c02218b43ab542823ff337e3ae254b7
:100bdc00009b9b0774d5019b9b0771d5ae6cb068cd
:100bec0000286dd0026a002a48d1037c5ab2002a30
:100bfc002adb002303728369b360c368002b00d027
:100c0c009847b268002a2fd0116ab389994200d84c
:100c1c008bb25068411a106884466144e967116ac6
:100c2c00c91a11628022a958890b8903a950a958a5
:100c3c009b049b0c0b43ab502823ff330a21e1543c
:100c4c002623ff33e2543be07f221340037401322e
:100c5c00ab589b0b9b03ab502823ff330a21e15469
:100c6c002623ff33e2542be00a232932ff32a3540c
:100c7c002822ff32a35423e050990000b3899a42f2
:100c8c0000d893b241688a1a01688c466244ea67bc
:100c9c00026ad21a02628022a958890b8903a950d0
:100cac00a9589b049b0c0b43ab502823ff330a2100
:100cbc00e1542a23ff330839e1542623ff33e2544d
:100ccc00238c9b0754d52a23ff33e35cdbb20193bf
:100cdc002823ff33e35cdbb20093009b5b070cd54e
:100cec007623eb5c9b0704d57622ab5c02218b430d
:100cfc00ab542823ff330422e254009bdb0737d587
:100d0c00019bdb0734d5ae6c3068002830d02b6fdc
:100d1c009b049b0c026a9a18026241688a420dd2ab
:100d2c00b188994228d803689a18ea662823ff33b9
:100d3c000522e254033b3b32e25419e000230372d8
:100d4c0083693360036a4360c368002b00d0984703
:100d5c003368002b13d01b68eb6605232822ff3267
:100d6c00a3542a22ff32a3542033ff33e93ae2542e
:100d7c0002b004bc9046f0bd01230372e0e70523ea
:100d8c0094225200a3542822ff32a354f0e7c04609
:020000040000fa
:100d9c00083500201c00000000000000f82c00208a
:100dac001001000000000000443200204000000050
:100dbc000000000084320020400000000000000011
:100dcc00a83400202000000000000000103100209a
:100ddc005000000001000000558b0000c194000081
:100dec0061950000619600006f960000d39400009e
:100dfc00158f0000756500001d2a0000a13200004f
:100e0c0009480000693c000035870000858d000012
:100e1c005d160000595d00009d5e000077360000f5
:100e2c000f45000000000000043400202c000000de
:100e3c0000000000903500200100000000000000c0
:100e4c00303400202c000000000000005421002051
:100e5c0000040000000000005425002000040000e5
:100e6c0000000000c4320020400000000000000020
:100e7c00682b00209001000000000000f42e0020e0
:100e8c00c8000000000000000433002040000000f7
:100e9c0000000000082e0020ec0000000000000004
:100eac00913500200100000000000000fc31002002
:100ebc0048000000000000008835002002000000ff
:100ecc00000000005c34002028000000000000003e
:100edc0048350020080000000000000054290020c4
:100eec00040000000000000092350020010000000a
:100efc000000000038350020100000000100000048
:100f0c0000000000020000000700000000000000cc
:100f1c0093350020010000000000000094350020f3
:100f2c0001000000000000004433002040000000dd
:100f3c0000000000bc2f0020040000000000000096
:100f4c0000000020c4090000000000008a350020c9
:100f5c000200000000000000c4090020c4090000c9
:100f6c0000000000603500200400000000000000bc
:100f7c00953500200100000000000000963500208f
:100f8c000100000000000000973500200100000067
:100f9c0001000000ff0000002435002014000000b8
:100fac000100000068610000746100007c610000b9
:100fbc008461000084610000b03100204c0000000e
:100fcc00000000003830002070000000000000001d
:100fdc008434002024000000000000005035002064
:100fec000800000000000000643500200400000030
:100ffc000000000068350020040000000000000024
:10100c006c35002004000000000000008813002054
:10101c00c4090000000000008c3500200200000014
:10102c0000000000983500200100000000000000c6
:10103c009935002001000000000000008e350020d2
:10104c000200000000000000c83400202000000056
:10105c0000000000703500200400000000000000bb
:10106c00843300204000000000000000c433002046
:10107c004000000000000000743500200400000057
:10108c000000000078350020040000000000000083
:10109c0060310020500000000000000058290020a2
:1010ac001002000000000000c02f0020780000009b
:1010bc0001000000d02f0020c82f0020d02f0020ce
:1010cc00000000000000000025000000541d00205e
:1010dc000004000000000000000000000000000000
:1010ec0000000000000000000000000000000000f4
:1010fc00000000004b990000000000000000000000
:10110c000000000000000000b972000000000000a8
:10111c0000000000000000000000000000000000c3
:10112c000000000000000000000000004c1d00202a
:10113c000804000000000000e8340020200000003b
:10114c00010000000100000003000000000000008e
:10115c000000000000000000000000000000000083
:10116c005835002058350020080000000000000011
:10117c007c350020040000000000000080350020b9
:10118c000400000000000000a830002068000000ef
:10119c00010000000100000003000000000000003e
:1011ac000000000000000000000000000000000033
:1011bc00bd750000000000000000000000000000f1
:1011cc00fb9700003f9200000000000000000000b0
:1011dc000000000000000000000000000000000003
:1011ec0000000000000000000000000000000000f3
:1011fc00000000000000000000000000843500200a
:10120c0004000000000000000000000000000000ce
:020000040000fa
:10121c00f0b58bb0040000910192242901d801296a
:10122c0003d11622bc4b1a6056e0e36be26c93427e
:10123c0024d25a1ce2631d78202df6d02b00093bda
:10124c00042bf2d90222223b9343002208929342b0
:10125c000bd12d3d6b425d416b420893e26ce36b0d
:10126c00934210d25a1ce2631d78009be26c002b57
:10127c000ed0102b56d1302d0cd053e0200004f0a2
:10128c000ffd0500d8e7200004f00afd0500ece78f
:10129c00302d45d1e36b934224d25a1ce2631d7866
:1012ac0020232b43782b2fd1e36be26c93421ed27d
:1012bc005a1ce2631d781022984b00925b5d0f2b39
:1012cc0000d8cce0e36c002b00d1b3e1019ae36bc6
:1012dc00002a11d0023be3630026002730003900be
:1012ec000bb0f0bd200004f0dbfc0500d8e72000bb
:1012fc0004f0d6fc0500dee7013be363002200238b
:10130c00200007f0e9fce7e7009b002b00d1a4e0ec
:10131c00009b0a2b00d0a2e00023009f01931ce04d
:10132c000a2300937d4b00995b5d8b42f0d3002a1e
:10133c0002d0e36b013be36300220023200007f0a3
:10134c00cbfc6ee7019ee36b7e437519303d019536
:10135c0093426cd25a1ce2631d782b00303be26c3a
:10136c00092b03d86e4b01999942ebd90027019eaa
:10137c002b00303b0193e36c0493019b092b33d876
:10138c00684b9f4213d802d1674b9e420fd8002363
:10139c000a223000390006f01bfb019b029300234c
:1013ac000393029bdb434a1c46d1984244d95b4bc6
:1013bc00009a5b5d934217d2e36be26c934200d3cd
:1013cc001de15a1ce2631878544b009a1b5c934243
:1013dc00f2d3109e119f22224f4b1a600123109ab8
:1013ec00134201d000230893e36c002b02d0e36b73
:1013fc00013be363119bbb4200d911e103d1109b6c
:10140c00b34200d90ce10123109a134200d0fae048
:10141c00089b002b00d0f6e0222201267642f7171b
:10142c003d4b1a60109b119cf618674156e7200043
:10143c0004f036fc050090e7e36b049a029e039fd0
:10144c0036184f41934203d25a1ce2631d788fe742
:10145c00200004f025fc05008ae708230093009b7c
:10146c005e1e3340019300d0c1e0009a1733534302
:10147c002e4a1b065b0fd35c0293284b009a5b5dd4
:10148c00e16c9a4203d92a4a019890422dd9029aca
:10149c0001204042c11707f039ff0027019e099037
:1014ac0004911e4b5b5d0193e36c019a0693009bc8
:1014bc00934200d87be7049b9f4200d977e703d186
:1014cc00099b9e4200d972e7029a3000390007f05e
:1014dc0029ff019b069a03431e00e36b0f00934206
:1014ec0014d25a1ce2631d78dbe7019e029a9640e7
:1014fc001e43e36b01968b4203d25a1ce2631d78a8
:10150c00bbe7200004f0ccfb0500b6e7200004f09c
:10151c00c7fb0500c5e7c046803500200e4400001f
:10152c00989999199999991999999999044400003c
:10153c00ffffff07019e009a5643f3180193e36bdc
:10154c008b424fd25a1ce2631d783e4b009a5b5d76
:10155c00e16c9a4203d93c4a01989042ead900279f
:10156c00019e384b5b5d0193e36c019a0293009be7
:10157c00934200d81be7002f17d01a00002330002d
:10158c00190006f025fa002309913a001900009879
:10159c0006f01efa099b069300230793069a079bf5
:1015ac0080185941002900d001e73b003200009817
:1015bc00002106f00dfa019b049300230593049b74
:1015cc00db434a1c02d1984200d9f0e6049e059fe9
:1015dc00e36b029a36184f4193420bd25a1ce263ca
:1015ec001d78bee7200004f05bfb0500ade700238f
:1015fc000193aae7200004f053fb0500b1e720009b
:10160c0004f04efbe0e6119b9f4203d808d1109bdf
:10161c009e4205d9109e119f22220c4b1a605de64a
:10162c00089b013300d059e633003c0000275e4292
:10163c00a74153e6019b00260027002b00d04de666
:10164c005ce6c0460e440000c6711c0780350020c5
:020000040000fa
:10165c00f8b5de4657464e464546e0b50400150043
:10166c000f260e404fb2431e033300d9c3e10823ab
:10167c00d356022b00ddc1e10e230b4200d0c0e19a
:10168c00436a9846330010339b00c31859683a11cb
:10169c00082313408a469a445346db79db0700d46f
:1016ac00b2e16b68994653469988484602f092fd20
:1016bc0000294cd0002f00dba9e1e378002b4cd0a3
:1016cc000023ab6103332b720023994669682962ae
:1016dc0053461a68002a00d072e104232b720023af
:1016ec00eb6153461d60002e00d02be1002f00da79
:1016fc00e8e02123e35c032b6ad0042b00d1c7e084
:10170c00012b00d061e1e16c0832286807f008ff7a
:10171c0082235b0040224146ca54f43b0822ff322c
:10172c008b540a22ff328b542b689a79002a44d1ad
:10173c0021230732e2545346aa691a6002232b7202
:10174c00eb68002b00d140e1280098473de1002fc9
:10175c000edbe378002b00d05ce1a37b012b1bd0cc
:10176c007f2040423cbc90469946a246ab46f8bd11
:10177c002b7cda0706d54a46002a03d08022524237
:10178c0013432b74e378002be7d00023ab610333b6
:10179c002b720023994699e700239b46a3730a20da
:1017ac00205606f0c5fd81465b46ab6103332b72b8
:1017bc000021002f00db8ae788e71b787f2b03d8fa
:1017cc0021230222e254b6e721230622e254b2e797
:1017dc00266db604b60c286a6b6832189a4201d989
:1017ec001e1ab6b2e16c2b689c466044320007f0be
:1017fc0097fe2b6af3182b626a6893421bd3002363
:10180c002b7221330822e254203bff3241468b5489
:10181c000a22ff328b540433ff33c93aca542b6a61
:10182c006b605346aa691a60eb68002b00d1cce0c0
:10183c0028009847c9e053469b88b3421bd9012323
:10184c002b7221220821a1540822ff3241468b54cd
:10185c000a22ff328b540433ff33c93aca542b6a21
:10186c006b605346aa691a60eb68002b00d1ace0a0
:10187c0028009847a9e001230822ff3241468b54e7
:10188c000a22ff328b540433ff33c93aca549ce00a
:10189c0000232122a3542b7201330822ff3241462c
:1018ac008b540a22ff328b540433ff33c93aca5487
:1018bc005346aa691a60eb68002b00d185e028001a
:1018cc00984782e02123e35c062b14d0072b7cd1b4
:1018dc0021230822e254236e9b0b9b0323660223d5
:1018ec00ff3241468b540a22ff328b540623ff33be
:1018fc00893aca5469e02b6a52469688b34200d2a0
:10190c009eb2e06d3200296807f00afe2b6a9b1b21
:10191c002b6221230922e254236e9b0b9b0323662b
:10192c00226eb3049b0c1343236602230822ff325e
:10193c0041468b540a22ff328b540623ff33893adb
:10194c00ca5442e0002f12db29687301e218d164fb
:10195c001e00464405220821ff31725433000a331d
:10196c00ff331a7082235b003b32f2542de0286a5d
:10197c009b88984200d883b26a68101a2a689446e9
:10198c0060447201a118c865286ac01a2862086ee2
:10199c00800b80030866086e9b049b0c03430b664c
:1019ac00160046440a230821ff31735432000a32d0
:1019bc00ff3213700623ff338022f25405e01a0025
:1019cc009369002bfbd19561ea61e3780020002b31
:1019dc0000d0c7e64b46002b09d0a37a5ab2002a96
:1019ec0005db1f221a40012393400e4a136001238a
:1019fc00a3730020b6e67d204042b3e67b20404234
:101a0c00b0e67c204042ade676204042aae67d203e
:101a1c004042a7e60023ab6103332b7200239946a7
:081a2c0055e6c04600e100e0b0
:020000040000fa
:101a34000023f0b506001500afb005910193059998
:101a44000b78002b00d10fe101235b420a930eab0c
:101a540000240c93802309940b940d930b5d002bad
:101a640001d0252b2ad1002c06d02200300006f00c
:101a74008bfd059b1b190593059b1a78252a00d01d
:101a8400e7e0013302930593022310219c460827c3
:101a9400059803782b2b1bd025d8202b1bd0232b68
:101aa4001dd02a2b2ad006f0e9fb0b90059b1a784f
:101ab400303a092a33d801330593f7e70134cde7e7
:101ac4000122099b80180393134309930590dfe7d0
:101ad4000423099a0ee0099b03933b430be0099b03
:101ae40003930b4307e02d2bead0302bd9d1624668
:101af400099b0393134309930130e7e72b680130f3
:101b04001a1d1b6805902a600b93002b07da099aab
:101b14005b420392012203990b934a400992099b69
:101b2400da0702d5022293430993059b1a782e2ad9
:101b34000ed10022581c0a9205905a782a2a28d1dc
:101b4400023305932b681a1d1b682a6003930a93ba
:101b540005a806f0d3fd059b0700187807f08cfd57
:101b6400692800d183e035dc632800d1d6e01bdc92
:101b7400252800d1dfe0612859d0252306aa137057
:101b8400029b0593002309930b93013b0a930233b1
:101b9400b2e006f073fb0a90059b1a78303a092ae2
:101ba400d6d801330593f7e7642860d06728e4dcce
:101bb4002a00390006a806f0a1ff002800d1a9e0f8
:101bc400059b09a95a1c05921b7806aa300007f048
:101bd400ddfe3de0702800d17de016dc6e2800d1ea
:101be40091e06f28c9d12b000022390006a804f027
:101bf40003f9002800d18de0059b06aa013309a949
:101c04003000059305f046f922e0752840d0782885
:101c14004fd07328b1d1802f00d07be0059b2a6878
:101c240001330593131d2b601268002364e02a001e
:101c3400390006a806f062ff002800d16ae0059b7f
:101c440009a95a1c05921b7806aa300007f09efecb
:101c54002418019b1c19a34200dc74e04f223b4b67
:101c64001a6001235b42019301982fb0f0bd2b0051
:101c74000122390006a804f0bff800284ad0059bc9
:101c840006aa013309a93000059303f0adfedfe78e
:101c94002b000022390006a804f0aef8002839d041
:101ca400059b06aa013309a93000059305f0ebfd55
:101cb400cee72b000022390006a804f09df8002886
:101cc40028d0059b5a1c05921b7806aa09a9300046
:101cd40001f008febce72b000022f02106a804f066
:101ce4008bf8002816d0059b079a01330593069bb1
:101cf400134306d1164a163209a9300005f0b0ff85
:101d0400a6e77823e1e7019b39001a1906a82b00fe
:101d140005f038fa059b013305939ae7802ff9d132
:101d2400059b013305932b681a1d1b682a6006aabc
:101d340013700123e0e7802fecd1059b06aa013341
:101d440005931070f5e7019479e6c04680350020cc
:041d54006891000092
:020000040000fa
:101d580030b585b004000e2917d083001b18db00ae
:101d6800874ad3181b7d002b0dd183001b18db007d
:101d7800d318dd68002d06d083001b18db00d318ac
:101d88001b690022a84705b030bd83001b18db0083
:101d98007b49cb180021197511787f230b40012b43
:101da80013d0212b00d0e1e083001b18db0074491d
:101db800cb18dd68002d00d1d8e053780b2b00d963
:101dc800cae09b006f49cb589f4653780a2b57d0df
:101dd8000b2b48d0062b09d083001c18e400684b55
:101de8001c196068012106f04af8cce7d378212b4a
:101df80009d0222b1fd0a3001c19e400604b1c192a
:101e080001232375bfe783001b18db005c49cb184f
:101e180099689079d3791b0203430a689a4200d9da
:101e28001a00a3001b19db005549cb18596a5868da
:101e380006f0fef8dfe783001b18db005049cb18db
:101e48009b689079d2791202196802438a4200d9b4
:101e58000a005968a3001b19db004948c3185868d1
:101e680006f0e6f8c7e79278474b1a7083001c180b
:101e7800e400434b1c196068002106f000f882e773
:101e880083001c18e4003e4b1c19606801223e497f
:101e980006f0cef877e702a9d3780b7093784b70e9
:101ea8009079d3791b0203434b80a3001b19db00f5
:101eb800334ad3181b690a0000212000a84762e7ab
:101ec8000f20684493780370a3001b19db002c498a
:101ed800cb181b69020001212000a84753e78300a3
:101ee8001b18db00264ad3181b6900220221a847c9
:101ef80049e701a9d3780b7093784b709079d3791f
:101f08001b0203434b80a3001b19db001c4ad31898
:101f18001b690a0003212000a84734e70e20684403
:101f280093780370a3001b19db001549cb181b69b4
:101f3800020005212000a84725e703a9d3780b70e4
:101f480093784b7083001b18db000d4ad3181b696c
:101f58000a000421a84716e7a3001c19e400084b4f
:101f68001c196068012105f08aff0ce7a3001c1901
:101f7800e400034b1c196068012105f080ff02e7ab
:0c1f88005c340020fc8700009135002034
:020000040000fa
:101f9400f0b5c64600b5754b9b7d002b00d1e2e041
:101fa400724a137edbb2927d52b2002a0ddb6f4a75
:101fb400137edbb2927dd20700d4c7e0db0700d4e6
:101fc400c4e06b4d6b4c26002ce05bb2002beedac8
:101fd400664b5b8b07221340e9d0654ad387634b7a
:101fe40080221a76793a5a831b7e5b0705d55f4bac
:101ff40004211a8d1a7e0a42fbd15d4b1b6a002b09
:10200400d5d05b4a516a02209847d0e7531c52004e
:10201400a15a19e0ff230b40544a1385544b1b7dee
:10202400002b21d1514b1b7edb0700d48ee0ab6823
:10203400ea68934200d186e04c4b596807230b4071
:10204400012be3d0531cb15c494a1269934292417b
:102054001340474ad360454b5a6807231340012b6a
:10206400d8d1424b1985d9e707f0c4f9404b1b6816
:10207400002bd7d03e4a127f002a08d03c4a9269ee
:102084009042cfd33a4a516803209847cae7384a66
:1020940092699042c6d1364a516803209847c1e7f5
:1020a4004246126a002a23d0696a01209047ab6a2b
:1020b40001332a6b93429241134019e02c4a926aed
:1020c4002d498c542a4a93623423d35c002b1fd1ac
:1020d400264b1b7e5b0746d5244b1c8da4b2b36aea
:1020e4000133326b934292411340fa6a9a42d7d039
:1020f4001f4ad26a9a42ebd01c4a516807220a400e
:10210400012adbd11a4a926a52001b498c52d9e740
:1021140006f09cff164b1b6a002bd9d014493c22b5
:102124008a5c002a06d08a6b9042d1d3496a002087
:102134009847cde70e4a926b9042c9d10c4a516a36
:1021440000209847c4e7094b01221a75074a137ef9
:10215400dbb2927d520706d55b0704d5044e3700e7
:10216400b0463500b4e704bc9046f0bd001400420c
:0c217400c432002054250020542100201b
:020000040000fa
:10218000f0b5c64600b5754b9b7d002b00d1e2e053
:10219000724a137edbb2927d52b2002a0ddb6f4a87
:1021a000137edbb2927dd20700d4c7e0db0700d4f8
:1021b000c4e06b4d6b4c26002ce05bb2002beedada
:1021c000664b5b8b07221340e9d0654ad387634b8c
:1021d00080221a76793a5a831b7e5b0705d55f4bbe
:1021e00004211a8d1a7e0a42fbd15d4b1b6a002b1b
:1021f000d5d05b4a516a02209847d0e7531c520061
:10220000a15a19e0ff230b40544a1385544b1b7d00
:10221000002b21d1514b1b7edb0700d48ee0ab6835
:10222000ea68934200d186e04c4b596807230b4083
:10223000012be3d0531cb15c494a1269934292418d
:102240001340474ad360454b5a6807231340012b7c
:10225000d8d1424b1985d9e707f0d8f8404b1b6815
:10226000002bd7d03e4a127f002a08d03c4a926900
:102270009042cfd33a4a516803209847cae7384a78
:1022800092699042c6d1364a516803209847c1e707
:102290004246126a002a23d0696a01209047ab6a3d
:1022a00001332a6b93429241134019e02c4a926aff
:1022b0002d498c542a4a93623423d35c002b1fd1be
:1022c000264b1b7e5b0746d5244b1c8da4b2b36afc
:1022d0000133326b934292411340fa6a9a42d7d04b
:1022e0001f4ad26a9a42ebd01c4a516807220a4020
:1022f000012adbd11a4a926a52001b498c52d9e753
:1023000006f0c2fe164b1b6a002bd9d014493c22a2
:102310008a5c002a06d08a6b9042d1d3496a002099
:102320009847cde70e4a926b9042c9d10c4a516a48
:1023300000209847c4e7094b01221a75074a137e0b
:10234000dbb2927d520706d55b0704d5044e3700f9
:10235000b0463500b4e704bc9046f0bd000800422a
:0c23600004330020f42e0020682b002025
:020000040000fa
:10236c0003460b437fd4002243088b4274d30309ea
:10237c008b425fd3030a8b4244d3030b8b4228d38b
:10238c00030c8b420dd3ff22090212ba030c8b42b1
:10239c0002d31212090265d0030b8b4219d300e051
:1023ac00090ac30b8b4201d3cb03c01a5241830bd6
:1023bc008b4201d38b03c01a5241430b8b4201d386
:1023cc004b03c01a5241030b8b4201d30b03c01aaf
:1023dc005241c30a8b4201d3cb02c01a5241830a29
:1023ec008b4201d38b02c01a5241430a8b4201d358
:1023fc004b02c01a5241030a8b4201d30b02c01a82
:10240c005241cdd2c3098b4201d3cb01c01a5241e8
:10241c0083098b4201d38b01c01a524143098b4271
:10242c0001d34b01c01a524103098b4201d30b015a
:10243c00c01a5241c3088b4201d3cb00c01a52417f
:10244c0083088b4201d38b00c01a524143088b4244
:10245c0001d34b00c01a5241411a00d201465241dd
:10246c00104670475de0ca0f00d04942031000d3fc
:10247c004042534000229c4603098b422dd3030a51
:10248c008b4212d3fc22890112ba030a8b420cd361
:10249c00890192118b4208d3890192118b4204d38a
:1024ac0089013ad0921100e08909c3098b4201d30a
:1024bc00cb01c01a524183098b4201d38b01c01a44
:1024cc00524143098b4201d34b01c01a52410309bb
:1024dc008b4201d30b01c01a5241c3088b4201d36a
:1024ec00cb00c01a524183088b4201d38b00c01a17
:1024fc005241d9d243088b4201d34b00c01a5241ee
:10250c00411a00d20146634652415b10104601d37a
:10251c004042002b00d54942704763465b1000d304
:10252c00404201b5002007f02ffa02bd0029f8d077
:10253c0016e77047f0b557464e464546de46e0b5c1
:10254c00040083b00d00924699468b4230d82dd0b2
:10255c004946504606f0f2fe29000600200006f01f
:10256c00edfe331a9846203b9b4633d45a465346cd
:10257c00934042461f00534693401e00af423ad848
:10258c00af4200d17be05b46a41bbd41002b00dabf
:10259c0078e0002200230092019301235a469340d5
:1025ac000193012342469340009328e08242cfd905
:1025bc0000220023009201930c9b002b01d01c6085
:1025cc005d600098019903b03cbc90469946a246c8
:1025dc00ab46f0bd424620239b1a5246da40414698
:1025ec0013004a468a40170042461f435346934005
:1025fc001e00af42c4d9002200230092019343462f
:10260c00002bd9d0fb079c46614672080a437b0815
:10261c0046460ee0ab4201d1a2420cd8a41a9d4111
:10262c00012024196d410021013e24184d41002e3a
:10263c0006d0ab42eed9013e24196d41002ef8d1e3
:10264c00009801995b4600196941002b25db2b0092
:10265c005a464446d3402a00e2401c005b46150013
:10266c00002b2bdb26005f46be403300260047467e
:10267c00be403200801a9941009001919ce7a34220
:10268c00b9d880e74246202300219b1a00220091f2
:10269c0001920122da40019283e7424620239b1ae1
:1026ac002a0046469a402300f340444613432a002e
:1026bc00e2401c005b461500002bd3da2023424677
:1026cc0026009b1ade402f00b4464646b7406646ad
:0826dc003b003343cae7c0468e
:020000040000fa
:1026e40010b5654b9b7d002b17d0634b5b8b9b0711
:1026f40014d5624b2022ff2199540132fd3999549b
:102704005e4a2023d35c5bb2013300d183e05b4a91
:102714002023d35c062b00d195e010bd564b5b8b78
:10272400db0707d5554b2022ff2199540132fd398f
:102734009954e5e7504b5b8b5b0707d54f4b202241
:10274400ff2199540132fe399954d9e74b4a202389
:10275400d35c5bb2032b40d0042b0fd0022bcfd120
:102764001369002b04d09088002105f0b7f8c7e75f
:10277400424b9888012105f0b1f8c1e73f4a9369bb
:102784001269934208d03d4a9168581c9061c95c13
:10279400394a2823d154b3e7384b5b69002b0ed058
:1027a400364b9b885b0001221343334a5362d3693f
:1027b400002bfcd1314a20330321d154a0e72e4a07
:1027c4005168c0239b020b435360d369002bfcd197
:1027d4002a4a20330621d15492e7284a5369013bff
:1027e400d2699a4209d0254bd968da69501cd8615c
:1027f40021482823c35c8b5482e71f4a5168e02395
:10280400db020b435360d369002bfcd11b4a2033fa
:102814000621d154e7e720230021d154164a5168f8
:10282400c0239b020b435360d369002bfcd1124b92
:1028340083221a76114b5b6a002b00d16de70f4a95
:10284400906a984769e71300002220215a54013105
:102854005a54094b83321a761900533a4b8b13405e
:10286400102bfbd1054b5b6a002b00d155e7034ac3
:10287400906a984751e7c046001000420434002093
:020000040000fa
:10288400f0b5de4657464e464546e0b585b0039062
:102894000f000292002a00d1afe0002900d1afe07e
:1028a40001230343dbb203935a4b8022d2009a6183
:1028b400962006f0c7fd02258024e400a1467fe0af
:1028c40072b608339846534e4b467361012006f0a6
:1028d400b9fdb461012006f0b5fd7460336ab460db
:1028e4005b05db0f3a78520013433b700a2006f075
:1028f400a9fd01235b429c46e0444346002be3d1ff
:10290400444e7461062006f09dfdb461032006f078
:1029140099fd62b63b78032b00d874e0ff2b69d095
:10292400013b9bb2994672b6019e3a4c8025ed005c
:10293400ab460ce06561062006f084fda56103202a
:1029440006f080fd0136f6b2b3b2994524d90823c6
:102954009a465b466361012006f074fda56101207f
:1029640006f070fd6560236aa560721cba185b05e9
:10297400db0f117849000b4313700a2006f062fd47
:1029840001235b429c46e2445346002be1d14b4673
:1029940063449e42d6dacde762b61e4c8026f6002a
:1029a4006661012006f04efda661082006f04afd8e
:1029b4003b78029a13800ee0019bf02b0bd1013d72
:1029c400012103a802f062fd031e019000d177e704
:1029d4006b1c002bf0dc0f4b8022d2009a619620f6
:1029e40006f030fd019805b03cbc90469946a246dd
:1029f400ab46f0bded230193ede7e2230193f1e74c
:102a0400e2230193eee76b1c002bd8dcf023019347
:082a1400e1e7c0460044004167
:020000040000fa
:102a1c00f0b5d6464f464646c0b50f260e400e249e
:102a2c000c4000d0aee0fe27bf001d00083dadb24b
:102a3c00bd4200d9a9e0451c00d1a9e0456aa946d0
:102a4c00082b06d908250134e4b26d00adb2ab42b7
:102a5c00f9d835001035ad0045196d68002a3ad10a
:102a6c002a60ab80aa710126e9793143e971aa6029
:102a7c00ab81aa73eb7b3343eb7380235b0049463a
:102a8c00ca541132ca54026d43490a400265036e9e
:102a9c000b400366036d2407e022d2051440234348
:102aac000365036e1c4304660369c3644369c36511
:102abc00036d5b005b080365036e5b005b080366dc
:102acc000a23ff3313224946ca5400201cbc9046eb
:102adc009946a246f0bd49b28a460911884608219a
:102aec008c464146674639408c4665440021296036
:102afc00ab80aa71eb7901218c4661460b43eb71db
:102b0c005346002b29db73014b441f0080235b00d1
:102b1c00fd5c07218d43fd54fd5c52001f49525c46
:102b2c001543fd540623ff334022fa545346d90f64
:102b3c007600761836018019036d174a1340036529
:102b4c00036d2407e022d20514401c430465036d79
:102b5c005b005b0803650020b8e773014b441f0062
:102b6c0080235b00fd5c70218d43fd54fd5c5200a5
:102b7c0094460a4a624452781543fd540433802229
:102b8c00fa54d3e77c204042a0e77c2040429de7ea
:102b9c007d2040429ae7c046ffffff8f049800005b
:020000040000fa
:102bac00f0b587b0039003a805f044fb002802dac7
:102bbc00002007b0f0bd039b1b095d1e202d09d919
:102bcc004f49023b4f4a8b4224d8db08d318043bb5
:102bdc001d7801352a000120002106f0a3fb0024fa
:102bec0043428c4100930194474f00983a687b68ac
:102bfc001040020001990b401a433fd1039b05a8da
:102c0c001033059306f0bcfb002809d10c223f4b76
:102c1c001a60cee7db09d318043b1d781135d9e7d0
:102c2c003b490c68a04206d0059b0400103b059361
:102c3c000123103483600125059be2180a602b43a5
:102c4c00083a083c28c26360002cb1d0200005f083
:102c5c0017fe00280bd023686168ab43e31a5a684f
:102c6c00aa4352185a606168a94362501c002000a4
:102c7c00039906f0baf8200008309ae7214a254952
:102c8c003c32002831d1584203404b43db0ed65c1a
:102c9c002036300006f098f9731cdb00fc58083b1a
:102cac00fb189c42a0d0272e25dd0235ae4201dc5c
:102cbc003f2e20d101226368039f9343dd1b280024
:102ccc00009305f08ffb864215d1e268a168e319e9
:102cdc00da60996093609a68d360012217431f6091
:102cec005d60009be5506760c1e7434203404b4386
:102cfc00db0ed65ccde73100200004f085ffb6e793
:102d0c00ff0100007876000060290020803500204b
:082d1c005829002029e66b078d
:020000040000fa
:102d240010b5564b9b7d002b53d0544a5168072352
:102d34000b40127e52075bd5504a906a50494a694b
:102d4400c9688a4254d2002b44d14d4b5968541c53
:102d54005c618854494b1b7edb0718d5474b012225
:102d64001a75474b9a699b689a4258d2444b196822
:102d7400501c98618a5c414b9a62414b9a699b68ea
:102d84009a4262d03e4b5a69db689a4269d03b4b07
:102d94001b7e9b0716d53b4b1b78002b19d0384b59
:102da4005a69db689a4211d1354b00221a773349ac
:102db4000720087533490a701b6a002b09d0304a72
:102dc400506a98472f4b1b78002b02d02b4b0222c2
:102dd4009a7510bd2a4b5968541c5c6152005052bc
:102de400264b1b7edb07d2d5244b01221a7508e043
:102df400224a127ed207cad5204a01211175002b1e
:102e0400afd01f4a93699268934213d21c4a116847
:102e1400581c90615b005a5a184b9a62ade7184be4
:102e24001b69002b23d0154aff219162013b144af0
:102e34001361a2e7124b1b69002b18d00f4a1249e9
:102e44009162013b0e4a136197e70d4b1b69002bfe
:102e540098d10c4b01221a70084b1b7e9b079ed401
:102e6400b4e7064b01229a7503321a758fe7044bb7
:102e74009a699b689a4200d084e7eae7000c004212
:0c2e84003034002090350020ffff0000db
:020000040000fa
:102e9000f0b5ce46474680b583b06b46dc1d0023b7
:102ea000984623704d4f70220021380006f0c0fb79
:102eb000032000f049f94a4d2b689847210038005b
:102ec000ab689847267843462370022000f03cf90f
:102ed0002b689847f000801b400038182100ab6831
:102ee00098472378f618f6b243462370012000f085
:102ef0002bf92b689847f000801b40003818210000
:102f0000ab6898472378f618f6b24346237004203e
:102f100000f01af92b689847f000801b4000381821
:102f2000ab68210098472378f618f6b24346237021
:102f3000002e4cd0294d00242a4b10229446634485
:102f40009946284b1c3294466344984622e0012b54
:102f50001bd105f0bbfb01006b7b022b35d89b001e
:102f6000214a9a581f48203006f044f80de005f039
:102f7000adfb01006b7b1b4a022b02d89b001a4a57
:102f80009a58184b181d06f035f80134e4b20e3586
:102f9000a6421cd068780028f7d02b78022b0cd0e2
:102fa000d5d9032be3d0042befd105f08ffb010023
:102fb000aa78404606f01ef8e7e705f087fb010017
:102fc000aa78484606f016f8dfe7064acae7034b38
:102fd000187803b00cbc90469946f0bd38300020fc
:0c2fe00084340020dc7300001096000018
:020000040000fa
:102fec0010b54b4b1b78012b14d0002b02d0022bad
:102ffc0022d010bd0321002005f0b8f9444b5860d5
:10300c00431cf6d00022434905f0dafd404b012267
:10301c001a70eee73e4b1b7c002bead03c49002398
:10302c004b7701338b7701330b708a6818313e3341
:10303c00002001f055fddce7354b1b7c002b03d148
:10304c00334b01221a70d4e7314b5b7f002b50d1ec
:10305c002f4b9b7f002bccd02f4b1b78002bc8d039
:10306c002e4b1b881a1c9bb2402b00d9402292b2cb
:10307c002b4b1a60264c0023a37740220021e068da
:10308c0006f0d0fa264b1a68264b1968264bc9183d
:10309c00e06805f0bdfee2682100143140230020f9
:1030ac0001f0a4fc0028a4d11d4b19681d4b1a6813
:1030bc0052181a60194a13885b1a9bb21380002ba2
:1030cc0097d10024144b1c70184a0021164806f0a6
:1030dc00a9fa144b1c60124b1c600d494c77144b15
:1030ec000422da618a6818314023002001f0f8fcd0
:1030fc007fe7104804f0a8f80f4b1b78012b03d086
:10310c00034b00225a7774e7094b0422da61f7e784
:10311c00c8340020c57b0000993500208e35002076
:10312c00743500207035002088130020c40900007d
:0c313c000044004184330020983500203e
:020000040000fa
:10314800022834d018d9032846d004282dd12d4b75
:103158002d4a1a602d4a5a602d4a9a602d4ada6023
:103168002d4a5a612d4a1a612d4a1a622d4a9a61ce
:103178002d4ada61002017e0012814d1214b2b4a8f
:103188001a602b4a5a602b4a9a602b4ada602b4afb
:103198005a612b4a1a612b4a1a622b4a9a612b4aa6
:1031a800da61002000e0e2207047e220fce7154bde
:1031b800274a1a60274a5a60274a9a60274ada60db
:1031c800274a5a61274a1a61274a1a62274a9a6186
:1031d800274ada610020e7e70a4b264a1a60264a9e
:1031e8005a60264a9a60264ada60264a5a61264a6e
:1031f8001a61264a1a62264a9a61264ada6100202a
:10320800d2e7c04684340020e19500001b85000009
:1032180035780000257b00002d980000f391000010
:1032280031910000757b000085280000f9900000ae
:10323800076f0000458c00005d990000619900004f
:103248006599000069990000617f0000c55300007e
:10325800836a0000d76c0000015c00007d730000e9
:103268000181000041810000dd900000e184000040
:10327800e9410000d19500001f71000029560000a7
:10328800756f0000e7970000dd97000035790000b2
:0832980067870000a93e000059
:020000040000fa
:1032a000f8b504000d000e230b4202d0102900d007
:1032b00094e0631c00d194e0666ae378002b0dd1a2
:1032c000a37b012b02d07f204042f8bd0023a373d3
:1032d0000a20205605f032f8010000e00021102df0
:1032e00015d00f222a404ad17f230932ff32b3542e
:1032f0000822ff32b35481330022f254636cda792e
:1033000001208243da71da7b8243da7323e084227c
:1033100052001020b0540823ff33f054002700015e
:1033200037546f35b554f554636cda79ff388243fe
:10333000da71da7b8243da7390235b00f754083347
:10334000f5542823ff33f554a36cda798243da71fc
:10335000da7b8243da73e3780020002bb5d10029b1
:1033600009d0a37a5ab2002a05db1f221a40012392
:1033700093401d4a13600123a3730020a5e76db29b
:10338000002d1bdb5301f31880267600985d07277c
:10339000b843985505200826ff3698550933ff3362
:1033a000187010329200a21853682d11082215408f
:1033b0005d19eb79073a9343eb71cce75301f318ae
:1033c00080267600985d7027b84398550a20082615
:1033d000ff3698550933ff331870e2e77c204042ee
:0c33e00073e77d20404270e700e100e050
:020000040000fa
:1033ec00f8b504000a00002800d191e00368002021
:1033fc00002b00d18de0002900d1464a19019142e1
:10340c0047d8190b1805002304f054ff80225202f0
:10341c00121a00250020002a7bd03f490b6802308d
:10342c0083430b60cb69002bfcd192b23a4b9a814f
:10343c006368022b55d0384a136838490b406d032a
:10344c001d4380235b041d4315605168a368e0682d
:10345c000343334801400b4361680b4353602e4ace
:10346c00d369002bfcd12c4a136802210b43136047
:10347c00d369002bfcd1284b5a6807231340012b2e
:10348c003fd0284bc82252001a63c83a1a61012057
:10349c003fe0d900914209d8590bd804002304f01d
:1034ac0009ff80225202121a0225b3e75900c918eb
:1034bc00002091422dd8002118001e000f00361854
:1034cc004f4180197941050c0b04060430001d4353
:1034dc002900002304f0eefe80225202121a042569
:1034ec0098e70d4a13680d490b406d031d43156099
:1034fc005168a368e0680343472081430b43536042
:10350c00ade7084bc8221a63643a1a61012000e047
:10351c000020f8bd006cdc0200080042ff1ffff029
:08352c00b8dfffff04330020ab
:020000040000fa
:10353400f0b583b005000c004978032900d179e087
:103544001dd9052930d009292cd1a278e3781b0292
:10355400134304d1c17807220a40052a2ed0ad2294
:10356400aa5cdbb29a4200d17fe0ae23ef5c002f6d
:1035740041d00233ea580023b4218c4633e00129b8
:103584000ad1a278e3781b021343012b05d1bf3380
:103594000022c254002100e00121280004f071fc43
:1035a40003b0f0bd0121f8e7027880235b421343a6
:1035b4000370a278ac23c2540021eee7b83306327c
:1035c400c25404f0c5fbad230022ea54eb78073261
:1035d400934304221343eb700021dee70133dbb293
:1035e4000432bb4207d011684e79a0788642f5d1e7
:1035f40060462950f2e7a278ad23ea54280003f08c
:10360400c2f9eb780722934305221343eb70a278a7
:1036140001ab1a70d523eb5c0021012bbdd1d7334c
:10362400eb58002b23d0dc22aa5801a90a20984782
:103634000021b2e7a278e3781b021343012b0fd0d9
:103644000121022ba9d102780c331340022ba4d1ff
:1036540063798370437801221343437000219ce70c
:10366400bf330122c254002197e7002195e70021ce
:0236740093e7da
:020000040000fa
:0236760070479b
:020000040000fa
:103678000122d20703004b403dd430b4431a01d293
:10368800c01ac9184b004400240eff2c29d0002c66
:1036980024d01b0e20d0e31a182b1ddc090211437d
:1036a800c40d000210435d4219350a00aa40d20930
:1036b800d940451801d36d080234013ce405280ab5
:1036c8000121c9072d062a438a4160414100090e9c
:1036d800ff2901d3c00dc00530bc7047c00fc0071b
:1036e800fae742001823da41ff2af5d07f200001cb
:1036f8000c300005f0e7a4465140431a02d253406b
:10370800c01ac9184b00090211431b0e4400240ead
:10371800ff2c41d0002b10d05b421b19012b10d37a
:1037280022d1c30d4002401a10d3db050100400a24
:10373800c90591415841644670472442fbd1002095
:10374800f9e7c30d40024900401af4d000210131c5
:103758004000fcd38c4204d95b1adb05400ac01830
:10376800e9e7180ac007e6e7192be4d801330c008b
:10377800d940dc414c40012c4941c30d00021043a3
:10378800441a01d4a4006408013bdb05200a24067e
:103798009441584164467047ff2b01d04102cad07a
:0c37a8007f2000010c300005c5e7c04682
:020000040000fa
:1037b40070b5060000294fd000284dd04648007f40
:1037c400002800d085e0454c656807242c40012c76
:1037d40049d0414806604260002444618461046128
:1037e4003000441ea041404201403b488160501ecd
:1037f400824152421a403848c26001240477374853
:10380400007e400705d5354c0420a56a257e054277
:10381400fbd13248448b04252c434483047e802509
:103824002c4304768a4202d9501a2b4c20612b482f
:10383400406840072bd1284a92698a421cd23078ca
:1038440026498862013224498a61002b3cd0234beb
:1038540004229a7501203de00020002b3ad0002a72
:10386400acd1002036e0002901d0cc0732d4002ba3
:10387400afd0dc07add52de0174a1269002ae4d099
:103884001649ff208862013a13490a61dde74908b5
:10389400114881600469640804615208c260826945
:1038a400914208d93188c905c90d0c488162013299
:1038b40009498a61c9e7002cc7d0084a08499162be
:1038c400013c054a1461c0e7044b01229a750120aa
:1038d40000e0002070bdc04630340020000c0042df
:0438e400ff010000e0
:020000040000fa
:1038e800f0b58fb00d934b680c9008938b680d0062
:1038f8000993cb6816000393089b0f68002b60dbc5
:1039080002239f4310233b400a933368059373684f
:103918000693099b04930a9b002b06d0059b069ae5
:10392800134302d0099b023b049308233b400b93ab
:103938005a1e9341049ad31a04932b69039a5c1e66
:1039480000231355089b0793012c10dd059b069a4d
:10395800134339d1079b002b36dc089a049b9b1a2a
:10396800079a9b18002b02dd02231f422cd10a9bc9
:10397800002b0bd00cce134308d0039b0d9a1b19b8
:10398800013b1a703023039a023c13550b9b002b02
:1039980003d02023039a013c13552b6900975a1e24
:1039a800039b121b19190c98099b03f01bf90c9b1c
:1039b8005b68db0503d56b68984200da18000fb026
:1039c800f0bd012308939de70f22059b013c13409e
:1039d80018005730092b01dc303318000d9b413b90
:1039e800192b06d820230343613b192b01d805f076
:1039f80048fe039b1855079b013b0793069b1a0734
:103a0800059b1b091a43069b05921b0906939be716
:020000040000fa
:103a1800f0b583b004000d0016000823c356002b30
:103a280000dc86e0092900d981e08b00424ad3589e
:103a38009f464378042293434370e427c3591b6c81
:103a48000021c0699847e3591b6c8021e0699847b9
:103a5800200004f07bf9e3595b6a1021e06998477c
:103a6800e3591f6a402300228021e069b847902368
:103a7800e356022b07dc22008832e423e3589b6bd1
:103a88000021e0699847e378072293430322134310
:103a9800e370e423e3581b69e06998470723034070
:103aa8005b0020780e22904318432070e2680e23b2
:103ab8001840022816d0b0239168e1501279023bd1
:103ac800e254ad230022e254d523e35c012b30d12c
:103ad800d733e358002b2cd0dc22a2583100280021
:103ae800984726e0a2335169e150127c023be25428
:103af800e7e74378042293434370e5e743780422d9
:103b080013434370e0e7e423c3585b69c0699847ef
:103b180001ae3080d8e7c3780722934301221343cc
:103b2800c370d1e7c37807229343c370cce7002d55
:0c3b3800cad103b0f0bdc046a48b000051
:020000040000fa
:103b440030b583b0002800d081e0444b1b78002bb3
:103b540000d07fe0414b01229a731a7020301a542e
:103b64004c685c62c87b5872002058709863187166
:103b74008d7a9d72cd7add720d7b1d734d7b5d73e5
:103b8400d87022705a6a013093780342fcd10a2318
:103b9400d370334b1b685b0b0193019a1f231340b3
:103ba4001f2b33d02d4a526a108d9b01034313857a
:103bb400019b9b05db0e1f2b2ad0108d034313851d
:103bc400019bdb045b0f072b24d0108d1b030343e5
:103bd40013850b7a002b03d013780420034313704e
:103be4001e4b5b7a012b17d01c4a516a0b780220ba
:103bf40003430b70516a02228b781342fcd1174a9b
:103c040020230221d154002003b030bd1a3bc9e760
:103c1400023bd2e7043bd8e7104b5a6a18004c30f9
:103c240050623c22002098540a6a1a645a6a138922
:103c34000c308343897b032906d09bb21381002176
:103c4400064804f097fecfe701310b43f5e7012066
:103c54004042d9e701204042d6e7c046f82c002074
:043c64002460800058
:020000040000fa
:103c6800f8b5ce46474680b5040088460f250d4076
:103c78000e230b4200d07ce0431c00d17ce0476a55
:103c88002b0010339b00c3185e68c378002b10d13b
:103c9800837b012b05d07f2040420cbc904699467f
:103ca800f8bd002383730a20205604f043fb8146a5
:103cb80001e000239946002d2dd182235b00f722d5
:103cc800fa540823ff33783afa54f3790227bb43ae
:103cd800f371043d2900300004f0e4fef37bbb439c
:103ce800f37330000830290004f0dcfee37800208c
:103cf800002bd2d14b46002b09d0a37a5ab2002a06
:103d080005db1f221a40012393401d4a136001233b
:103d1800a3730020c1e743465bb298461b110820f5
:103d280018403018c37902229343c37104214942d1
:103d380004f0b8fe4346002b0ddb6d017d1982238c
:103d48005b001022ea540822ff322021a954073ac6
:103d5800ff3aea54cae76d017f1982235b002022eb
:103d6800fa540822ff324021b954063aff3afa546d
:103d7800bce77c20404290e77d2040428de7c0466a
:043d880000e100e076
:020000040000fa
:103d8c0070b582b0040016006b460022da710e2961
:103d9c0001d002b070bdec2545433f4bed18b27914
:103dac00f3791b0213432a00e03213802b00e43317
:103dbc001b681b6c7231e86998473378db06db0ea5
:103dcc00dab2012a2cd05bb2002b09d0022a38d0ef
:103ddc00032aded132000e21280004f0f3fdd8e7cf
:103dec003278602313400cd152b2002a04db31002c
:103dfc002800fff799fbcce73100280000f080fc8d
:103e0c00c7e7402b06d0202bc3d10121280004f09a
:103e1c0034f8bee732000e21280004f0d3fdb8e7d9
:103e2c00327860231340402b05d0317932002800c2
:103e3c0003f04afeade731793200280003f044fe6e
:103e4c00a7e7317900290ad1337860221a421bd1b5
:103e5c006b46d9793200280002f0cafb99e76b4611
:103e6c00da1d280004f026f9ec2363430a4ce4180d
:103e7c00e27807231340052b01d10028e4d101215e
:103e8c00280003f0faff84e76b46d979320028004a
:0c3e9c0003f01afe7de7c046082e00204f
:020000040000fa
:103ea800f0b5de4657464e464546e0b583b08946ee
:103eb800924600236a46d371524613800b7013272b
:103ec800002668e04b461b7823434a46137064007b
:103ed800e4b2002c0bd02e70280002f0a1ff0028bd
:103ee80005d12b7842465340012bf0d8eae74b46e0
:103ef8001b78002b4bd052461380013f7fb27b1cae
:103f080001d1eb2435e0002f3bdd4b461b78032b1a
:103f180039d9c82b39d84a46561c013bdbb29a46d8
:103f280000239b461f1c7f23984619e033782343c0
:103f380033706400e4b2002c0cd02f70280002f01b
:103f48006fff002805d12b7842465340012bf0d84b
:103f5800ece7040001364b46db43f3189a4505ddd0
:103f68005b46337001246b46dd1de6e75a2005f0f9
:103f780067fa200003b03cbc90469946a246ab467f
:103f8800f0bdeb24f5e7e624f3e7ed24f1e7013f84
:103f98007fb27b1cb5d005f0b9f8882004f0a2fcec
:103fa80004005a2005f04cfa002cf0d101346b467d
:083fb800dd1d7f2398468ee712
:020000040000fa
:103fc000f0b585b005000e000478012c26d0002c39
:103fd00007d0022c40d0032c5bd0e224200005b097
:103fe000f0bd3b4f39000831192205f09ffa280037
:103ff00005f026fb390024310004000c28180a23a0
:104000000293023b0193002300930333002205f047
:10401000c8f9280005f014fb3080dfe72c4c2100a4
:104020003c31092205f082fa280005f009fb210045
:1040300024310004000c28180a2302930023019362
:1040400004330093033b002205f0abf9280005f090
:10405000f7fa30800024c1e71d4c210048310922c5
:1040600005f064fa280005f0ebfa21002431000481
:10407000000c28180a2302930023019301330093b4
:10408000002205f08ef9280005f0dafa30800024cd
:10409000a4e70f4c21005431092205f047fa28000b
:1040a00005f0cefa210024310004000c28180a2360
:1040b00002930023019302330093013b002205f099
:1040c00070f9280005f0bcfa3080002486e7c0466d
:0440d0006c50000030
:020000040000fa
:1040d400002243088b4274d303098b425fd3030a43
:1040e4008b4244d3030b8b4228d3030c8b420dd356
:1040f400ff22090212ba030c8b4202d312120902e4
:1041040065d0030b8b4219d300e0090ac30b8b4221
:1041140001d3cb03c01a5241830b8b4201d38b03cf
:10412400c01a5241430b8b4201d34b03c01a524174
:10413400030b8b4201d30b03c01a5241c30a8b42b7
:1041440001d3cb02c01a5241830a8b4201d38b02a2
:10415400c01a5241430a8b4201d34b02c01a524146
:10416400030a8b4201d30b02c01a5241cdd2c309b8
:104174008b4201d3cb01c01a524183098b4201d334
:104184008b01c01a524143098b4201d34b01c01a1f
:10419400524103098b4201d30b01c01a5241c30897
:1041a4008b4201d3cb00c01a524183088b4201d306
:1041b4008b00c01a524143088b4201d34b00c01af2
:1041c4005241411a00d20146524110467047ffe75e
:1041d40001b5002005f0dcfb02bdc0460029f7d084
:0441e40076e77047c3
:020000040000fa
:1041e800f0b5ce4600b584b001900e00150002abc4
:1041f8000122da8002abfe325a71002d48d0002924
:1042080048d000232b80394b1b78112b0cd001226e
:10421800019804f0fffc012400282ad1337899463c
:1042280001248027ff0048e002ab591d33780b704a
:1042380073781b02b778ff18bfb202ab9a1d04f05f
:104248004bf9002828d102ab05331b78102b25d059
:10425800ff2b23d07f221340302b01d0012f0dd10b
:1042680001223100019804f0d5fc01240223002822
:104278000cd12c8004b004bc9146f0bd3a0031004a
:10428800019804f0c7fc3c000223f0e71c00f0e7ab
:10429800e220efe7e220ede70224eae7022231001c
:1042a800019804f0b7fc02240028e2d13278120207
:1042b80073789b189bb299460224ed20b945d8d84b
:1042c800a31c07384b45d4da084b1b78112b03d0b5
:1042d80001304b46fe2bccd84b461a1b92b23119f3
:1042e800019804f097fc23004c46c0e79535002060
:020000040000fa
:1042f80070b5002841d00468002900d13649630010
:1043080099423cd3354b9c423bd8080004f04efe02
:10431800051c200004f04afe011c281c01f032ff95
:10432800061c2f49281c01f001fb2e49fff7a0f9b4
:10433800011c301c05f070f904f092fd05002a4bb1
:104348009c4209d8ff235b00ff209d421cd8fe3801
:10435800012d19d9680817e07e23ff33984212d837
:10436800032836d940000321fff7b0fe06020321d7
:104378002800fff7abfe304306e0002028e00020cd
:1043880026e0002024e019481749a1428941494202
:10439800174a13680224a3431360d369002bfcd186
:1043a800134bd8601a681348024009061143196074
:1043b8001a6802210a431a601a00d369002bfcd13b
:1043c8000b4b10225a831a00d369002bfcd1012011
:1043d80070bd0948d8e7c046006cdc0240420f00b7
:1043e80095bfd63300002041801a06007fff0000e9
:0c43f80000100042fffffffc010200006b
:020000040000fa
:10440400000102040703060500ffffffffffffff93
:10441400ffffffffffffffffffffffffffffffffa8
:10442400ffffffffffffffffffffffffffffffff98
:10443400ffffffffffffffffffff00010203040573
:1044440006070809ffffffffffffff0a0b0c0d0e15
:104454000f101112131415161718191a1b1c1d1ef0
:104464001f20212223ffffffffffff0a0b0c0d0e6d
:104474000f101112131415161718191a1b1c1d1ed0
:104484001f20212223ffffffffffffffffffffff8e
:10449400ffffffffffffffffffffffffffffffff28
:1044a400ffffffffffffffffffffffffffffffff18
:1044b400ffffffffffffffffffffffffffffffff08
:1044c400fffffffffffffffffffffffffffffffff8
:1044d400ffffffffffffffffffffffffffffffffe8
:1044e400ffffffffffffffffffffffffffffffffd8
:1044f400ffffffffffffffffffffffffffffffffc8
:0a450400ffffffffffffffffffffb7
:020000040000fa
:02450e007047f4
:020000040000fa
:1045100070b582b00c001600087805f071f8051e21
:1045200000d16fe0407804f0d1f8002825d00100d8
:10453000200005f041f92b78022b3ed0032b46d00a
:10454000042b4ed0012b56d12f4b5968200004f07c
:1045500033ff200005f074f880b2ab782b492018a7
:104560000a2200920022743104f01bff200005f0a3
:1045700067f83080002002b070bd6b78002b06d049
:1045800022490f226431200004f0d0ffd3e71e4bf4
:104590001968200005f010f9200005f051f81b49ba
:1045a0000004000c20180a22603104f0fafe2000fa
:1045b00005f046f83080c520dde7134b99682000f0
:1045c00004f0fafe200005f03bf880b2c5e70e4b80
:1045d000d968200004f0f0fe200005f031f880b228
:1045e000bbe7094b1969200004f0e6fe200005f046
:1045f00027f880b2b1e7044b1968200004f0dcfe14
:10460000c520b8e7c520b6e7243500206c5000006f
:020000040000fa
:10461000f0b5d6464f464646c0b5002867d10029ba
:1046200068d08b69002b68d0354b0130187200229e
:104630001a83da780724a243da708a69da600e8a6c
:104640001e824d695d610c7f0722144024011a7897
:104650007027ba439246002291460027b846c027e9
:104660004246da555246224382437f2422401a7042
:104670005a785b3ca4469c44643467461f5104341a
:1046800040271f510c341855083c4f461f55043421
:104690001c4f1f5108341b511b4c1c679b67742413
:1046a00018558243033082435a70d42248469854a6
:1046b0001032486a9850498c04329952002e10d01a
:1046c00000241e0005e010350134e4b2338aa34211
:1046d00007d9eb68002bf6d01b69002bf3d0984765
:1046e000f1e700201cbc90469946a246f0bd01208f
:1046f0004042f7e701204042f4e701204042f1e761
:0c470000082e002001490000b7700000e6
:020000040000fa
:10470c0030b583b005000c00002301934b78062bc9
:10471c0014d0082b5ad0002b3bd1bc214352037828
:10472c00db07c022805cbf3a02405200db0f134310
:10473c006b542b00bc33019302204be0c068cb7848
:10474c00072b57d89b002c4ad3589f462a780e2308
:10475c001340022b03d003680193122032e0c3688c
:10476c00019312202ee08b78ae22aa5c9a4210d9cb
:10477c00b022aa589b009b58002b0ad001939a7820
:10478c00d8780002104325e02a7870231340102bb0
:10479c002ed00121280003f070fb29e02a78702329
:1047ac001340102bf5d1023b1a40022a03d0436a66
:1047bc0001930a2006e0036a01930a2002e001aa91
:1047cc0001f08cfe0199002905d1e2e70300ad331d
:1047dc00019301200199a279e3791b0213431a1c5e
:1047ec009bb2834200d9021c92b2280003f01efc3b
:0c47fc0003b030bd0020e5e7348f000062
:020000040000fa
:10480800f8b5ce46474680b5060088460f240c40ca
:104818000e230b4268d1431c69d0476a230010332a
:104828009b00c3185d68c378002b10d1837b012bd4
:1048380005d07f2040420cbc90469946f8bd002325
:1048480083730a20305603f075fd814601e000238a
:104858009946002c2ad043465bb2002b3edb083435
:1048680064013c19102262711b1108221340ed18d3
:1048780003214942280004f015f9eb790222134379
:10488800eb71f3780020002bd5d14b46002b09d0d3
:10489800b37a5ab2002a05db1f221a40012393403b
:1048a800144a13600123b3730020c4e70623ff33bf
:1048b8002022fa54103afa54033c2100280004f04c
:1048c800f1f80227eb793b43eb712800083021000f
:1048d80004f0e8f8eb7b3b43eb73d2e70834640160
:1048e8003f1920227a71bfe77c204042a3e77d2050
:0848f8004042a0e700e100e0ee
:020000040000fa
:1049000070b505000823c3569a1c41d04469022b98
:1049100007d04268002a42d1c423e25400210f2666
:104920001ee0c233e35c002b0ed02300c433db68ef
:10493000002b09d0d822a558ab422ad02200c4327d
:10494000908800220c219847c4230122e2542300be
:10495000c433284ada60228b9a80210024310e2643
:104960002300c433db68d822a558ab423cd02200d8
:10497000c43290880a00310098478c234022e250cc
:1049800022008832e0695833e3589b6b0021984736
:1049900070bddc23e25800210c20a847d4e7c423d3
:1049a000e35c002b1dd02300c43358789b788342ee
:1049b00002d800210d26d3e7cc23e3581818210094
:1049c000243104f0b3fd2200c4326b6851785b18c7
:1049d000dbb253709278002101269a42c0d80c367f
:1049e000bee700210126bbe7dc23e2583000a847e0
:0849f000c3e7c0468d3d000045
:020000040000fa
:1049f800f8b504000d00012149422960012860d85a
:104a080081000918c9003348095c89075cd5a100f1
:104a18000919c90041188e68c869b168884256d218
:104a28002d494978012903d0602676423000f8bd27
:104a38002949002048702949097a49b201290bdd22
:104a480026482c2141560127012906dd224b012247
:104a58005a7080267642e9e700272048f900ce19e7
:104a6800b60086197360cb199b001a501c4bf36073
:104a780074612e6004f0cafea7003f19fb00154fb1
:104a8800ff18fb690133fb6104f0c4fe797d786887
:104a9800320004f099f9061e03d10f4b01225a7017
:104aa800c4e704f0b3fe0b49a3001a19d2008a1810
:104ab800d369013bd36104f0adfe01235b422b6057
:104ac800ebe778267642b1e776267642aee780268f
:104ad8007642abe75c34002088350020fc310020aa
:044ae800496d000014
:020000040000fa
:104aec00f8b504000d00012149422960012860d865
:104afc0081000918c9003348095c49075cd5a1003d
:104b0c000919c90041188e68086af168884256d2a2
:104b1c002d494978012903d0602676423000f8bd32
:104b2c002949002048702949097a49b201290bdd2d
:104b3c0026482c2141560127012906dd224b012252
:104b4c005a7080267642e9e700272048f900ce19f2
:104b5c00b600861973601e4bf360cb199b001a507c
:104b6c00746104f051fea7003f19fb00154fff18ac
:104b7c003b6a01333b6204f04bfe2e60397e786851
:104b8c00320004f01ff9061e03d10f4b01225a709c
:104b9c00c4e704f039fe0b49a3001a19d2008a1895
:104bac00136a013b136204f033fe01235b422b605a
:104bbc00ebe778267642b1e776267642aee780269a
:104bcc007642abe75c34002088350020fc310020b5
:044bdc00b96d0000af
:020000040000fa
:104be000f0b5c64600b50600344b18600024344fbb
:104bf00006e08578b5421ed00134e4b2082c3cd0e2
:104c0000200004f0fdfc3b78002bf2d08578b54203
:104c1000f2d102789046934205d0032becd11300d9
:104c2000033b012be8d84178264b1970447b244b79
:104c300000221a7005e0037898464178214b1970dc
:104c4000447b4346023bfd2213421fd002234246cf
:104c50009a43012a13d1080003f038fd0500200013
:104c600004f042fb0300424692001749515817488e
:104c70002a002c3004f0bef919e0002398461348ae
:104c800001004031503004f0b5f910e0080003f0a5
:104c90001dfd0600200004f027fb43469b000a4a46
:104ca00099580a482b003200183004f0a3f9404606
:104cb00004f00efb04bc9046f0bdc04660350020f9
:104cc000963500209535002024350020f86000003e
:020000040000fa
:104cd000f8b5de4657464e464546e0b583460029c0
:104ce00061d0324b1f6900249c461e0008e030480a
:104cf0004d4685542d4a9360631c01348b4243d248
:104d00002c4b5a6807231340012b19d0b268f56861
:104d1000531cbb42804103409d4236d05846005d43
:104d200081462448406882460720804650464546d2
:104d300028400128dbd152001d484d468552d9e755
:104d400063469a68db689846531cbb428041034027
:104d500098451ad060005d46285a8146154840683b
:104d6000824607208046504645462840012806d006
:104d70000f484d4685540d4a9360631cbde75200b1
:104d80000b484d468552f6e71c0004f053f9002805
:104d900002d0084b01229a7520003cbc90469946ef
:104da000a246ab46f8bd0c00efe7c046c432002077
:084db00054250020001400420c
:020000040000fa
:104db800f8b5de4657464e464546e0b583460029d7
:104dc80061d0324b1f6900249c461e0008e0304821
:104dd8004d4685542d4a9360631c01348b4243d25f
:104de8002c4b5a6807231340012b19d0b268f56879
:104df800531cbb42804103409d4236d05846005d5b
:104e080081462448406882460720804650464546e9
:104e180028400128dbd152001d484d468552d9e76c
:104e280063469a68db689846531cbb42804103403e
:104e380098451ad060005d46285a81461548406852
:104e4800824607208046504645462840012806d01d
:104e58000f484d4685540d4a9360631cbde75200c8
:104e68000b484d468552f6e71c0004f0fbf8002875
:104e780002d0084b01229a7520003cbc9046994606
:104e8800a246ab46f8bd0c00efe7c046043300204d
:084e9800f42e00200008004286
:020000040000fa
:104ea000f0b5d6464f464646c0b50600431c45d031
:104eb000ec224243334b9b181b7a5bb2002b3ddd47
:104ec000ec2242432f4b9b18d4331b78002b1cd071
:104ed000012b33d1ec2242432a4b9b181b8a984664
:104ee000002b2bd0274bec224243d75c3f077f0f90
:104ef0009b181a00ad32127891465d690024ec23ac
:104f00004343204ad618b24625e0ec2343431d4cc8
:104f1000e4182300e8331888043b1b681b680f2142
:104f20009847e061431c09d0ec237343154ef618f3
:104f30003300d43301221a70022333721cbc904612
:104f40009946a246f0bda888984710350134e4b2ce
:104f5000a3b24345f2d22b783b42f6d06b784b4557
:104f6000f3d1f27807231340052beed153465b783b
:104f70005b07ead4eb68002be7d0db68002be2d1bb
:084f8000e3e7c046082e002003
:020000040000fa
:104f8800020200006a0100000a020000020200009a
:104f9800020200000a0200000a0200000a020000e1
:104fa8000a0200000a0200000a0200000a020000c9
:104fb8000a0200000a0200000a0200000a020000b9
:104fc8000a0200000a0200000202000002020000b9
:104fd800100300001803000018030000e802000096
:104fe80018030000e002000000030000180300009e
:104ff800180300001803000018030000080300004d
:10500800180300001803000018030000180300002c
:10501800180300001803000018030000180300001c
:10502800180300003a020000ca030000260400002a
:105038002604000026040000ea03000026040000fd
:1050480026040000c2030000260400001604000025
:10505800d20300001e0400002604000026040000fd
:045068000e04000032
:020000040000fa
:10506c00506172736572200043727970746f417570
:10507c0074685472757374506c6174666f726d20c1
:10508c0000000000253032582825303258253032a7
:10509c00582530325829256300000000534841320e
:1050ac00303441200000000041455331333241205f
:1050bc00000000004543433130384120000000001f
:1050cc0025630000756e6b6e6f776e5f6465766935
:1050dc006365000025303258282530325829256365
:1050ec00000000002e2e2e2e2e2e2e2e25730d0a95
:1050fc00000000000d00000025733a2025730d0af6
:10510c000a00000025733a202573000025733a200d
:10511c0025730d0a000000003a7400003a54000098
:10512c003a73656e64000000526563656976656468
:0c513c000000000053656e740000c046c7
:020000040000fa
:105148001a0000008099000016000000ec9600008c
:105158000e00000044980000060000004c98000073
:1051680013000000549800000b0000001097000086
:105178001100000074980000050000007c980000f1
:10518800020000004c970000040000009498000002
:10519800000000009c98000017000000849900009f
:1051a800120000008c9800000d000000a498000078
:1051b8000a000000889900000c00000058970000c1
:1051c80003000000b498000009000000bc9800002b
:1051d80007000000c498000018000000d4980000e0
:1051e8000100000070970000140000007c97000088
:1051f8001500000088970000190000008c99000035
:105208000f000000fc980000100000001499000036
:08521800080000001c990000d1
:020000040000fa
:105220000d2d2d2043727970746f41757468205470
:105230007275737420506c6174666f726d28444d82
:1052400033323031313829202d2d0d0a2d2d2043b8
:105250006f6d70696c65643a20536570203233203d
:10526000323032322030383a30353a3530207631eb
:105270002e302e34202d2d0d0a2d2d20436f6e73d0
:105280006f6c65206c6f6720283131353230302dde
:10529000382d4e2d3129202d2d0d0a0d0000000036
:1052a0004b69745061727365722056657273696fd1
:1052b0006e3a207625642e25642e25640d0a0000a2
:1052c00044657669636520446973636f76657279b6
:1052d0002e2e2e2e2e0000000a25730d0000000039
:1052e000436f6d706c657465640000000a25730d72
:0452f0000a00c046aa
:020000040000fa
:1052f400f0b583b00400080009ab1b78042b4bd035
:10530400052b59d10a9bdb78db439b0754d10a9bbd
:105314009a7853b2002b1fdb284ea5002b19db0013
:10532400f3181a760a990f7949790902394359838e
:105334000a9b19795b791b020b4300930323002119
:1053440003f0c7fb2b19db009a5d04210a439a552d
:10535400f51800232b622fe0184ea5002b19db0053
:10536400f3185a750a990f79497909023943d98290
:105374000a9b19795b791b020b43009303230021d9
:1053840003f0a7fb2b19db009a5d02210a439a550f
:10539400f5180023eb610fe00849a3001d19ed0087
:1053a4006e5c01273e436e541d19ed004d19686073
:1053b400aa600a9b09336b6203b0f0bd5c34002021
:020000040000fa
:1053c400f0b583b00e00151e57d0002957d0002326
:1053d400138008786b46d87149780902b27852185c
:1053e40094b27f230340302b04d00227012c02d136
:1053f400270000e00127234b802292025a610121f9
:105404006b46d81d04f04cf9f023002807d11d4a3f
:105414008021890291612f80180003b0f0bd012121
:10542400194802f02afe031ef1d13900300004f0bd
:10543400a5f8e6230028ead03900134802f01dfe3f
:10544400031ee4d1012fe2d033781b027778ff18d2
:10545400bfb2ed23bc42dad3073b042fd7d9b91e20
:10546400b01c04f08bf8e6230028d0d0b91e89b212
:10547400054802f002fe0300c9e7e223cce7e22379
:0c548400cae7c0460044004140420f004f
:020000040000fa
:10549000f0b5de4657464e464546e0b585b08046f7
:1054a0000191002853d072b600239a46002906d0f5
:1054b000284b1a8869464a809b889b4639e0002021
:1054c0003be0254f8023db0099467b61207803f089
:1054d000bbff4b46bb61607803f0b6ff6d08013e31
:1054e000002e0dd0434652469b5c02aa694649886d
:1054f00011805946918014002b42e2d103ace0e7c1
:105500004c467c61012003f09fffbc61012003f049
:105510009bff7c603b6abc6023420dd10a2003f0f4
:1055200093ff53460133dbb29a469bb2019a9342f2
:105530000bd208268025d5e7f02062b605b03cbc2a
:1055400090469946a246ab46f0bd0020f5e7e22022
:0c555000f4e7c046f09500000044004164
:020000040000fa
:10555c00f7b5002858d00838436801221e0096433e
:10556c0085192a680400934200d0ffde01276b687e
:10557c00226813403b420ed1200003f081f9002831
:10558c0043d1280003f0c3f90028f0d06b68bb436b
:10559c00f618ed18ebe73b003343636030002b60eb
:1055ac0002f020ff019003f00ffd6b68226813409e
:1055bc003b42e1d0184b019a1868596803f0a6fedb
:1055cc00384212d1019a0120002103f0abfe0b00ee
:1055dc00002804d0104a126802430f480260002bc6
:1055ec0003d00d4a53680b435360019b0a4a0133a5
:1055fc00db00d3181a005b68083a66602e60e36023
:10560c00a260d460e3689c60f7bd2368bb43e41ad6
:0c561c006368bb43f618b4e76029002067
:020000040000fa
:10562800f0b585b006000f0003ab04221a701121f3
:105638005970223199701031d97001ac002301934f
:10564800a380a3713b706b469d1c5a80002004f018
:10565800c6f80a2003f0fcfd002001f087fc1e209c
:1056680003f0f6fd2a0021000020fef719fc0028af
:1056780006d1042203a901a803f080fd002804d064
:10568800002004f0acf805b0f0bd01a9073008709f
:1056980030234b7000238b70cb700b7103334b712d
:1056a8005a338b716b469a1c1080002002f03ef929
:1056b8000028e5d101a802f081ff0028e0d0351dbf
:1056c80004226b46591d280003f02cff0023b370f9
:1056d80003243470280001f0b5fc707074733b78b3
:0656e80001333b70cce72a
:020000040000fa
:0256ee00704703
:020000040000fa
:1056f00070b5040003011b181a012d4b9b182033b1
:105700001b785bb2002b0cdd1300294ad3189b6b6e
:10571000002b06d003011b181b01d3185d7a012d45
:1057200000d070bd03011b181b01d3181b6c002b8c
:1057300020d09847060023011b191a011c4b9b1807
:105740003c331b788342ecd001281cd023011b1969
:105750001b01174ad3181b79002b21d125012d19c4
:105760002b01d51800220921686bab6b98470123e8
:105770002b7115e003011b181a010d4b9b183c33cc
:105780001b78012bcdd0260136193301084ef618af
:1057900000220821706bb36b9847002333712e00f1
:1057a00023011c192401024b1b193c331e70b8e75e
:0457b000f82c0020b1
:020000040000fa
:1057b400f0b583b005000c001600042848d0294b2e
:1057c4001b78052b1ad00ed9062b0fd0f12b20d124
:1057d4000a2302002449200003f0e1fd200003f025
:1057e4002dff30803ae0013b022b12d81f4b1a8860
:1057f40032801f49200003f097fe2fe00a230200a5
:105804001949200003f0cbfd200003f017ff30807e
:1058140024e0164b188800280ad10a232a001249ca
:10582400200003f0bcfd200003f008ff308015e0e9
:105834000f4f390000f010fe0c4b18800a490a2360
:1058440000933b002a000c31200003f0a8fdeae796
:105854000a2304220449200003f0a1fd002003b020
:10586400f0bdc04697350020f86000008a3500205e
:045874000000002010
:020000040000fa
:10587800214a136a21490b4002210b431362082372
:10588800d1680b42fcd01c4b00229a611c4b1d4a6c
:105898005a601d4a9a601a0053785bb2002bfbdbf2
:1058a800174b1a4a5a80144b81225201da642f226c
:1058b8009a6415320221995418004e31413a435cda
:1058c8001340032bfbd10e4b842252025a601a005c
:1058d80053785bb2002bfbdb094b0d4a5a800d4a0b
:1058e8005a800d4a5a800d4a5a800d4a5a800d4beb
:1058f8000d4a1a627047c046000800400000ffcffa
